{
  "contractName": "Whitelist",
  "abi": [
    {
      "anonymous": false,
      "inputs": [
        {
          "indexed": false,
          "internalType": "address",
          "name": "_address",
          "type": "address"
        }
      ],
      "name": "Whitelisted",
      "type": "event"
    },
    {
      "inputs": [
        {
          "internalType": "address",
          "name": "",
          "type": "address"
        }
      ],
      "name": "_whitelist",
      "outputs": [
        {
          "internalType": "bool",
          "name": "",
          "type": "bool"
        }
      ],
      "stateMutability": "view",
      "type": "function"
    },
    {
      "inputs": [
        {
          "internalType": "uint256",
          "name": "",
          "type": "uint256"
        }
      ],
      "name": "addresses",
      "outputs": [
        {
          "internalType": "address",
          "name": "",
          "type": "address"
        }
      ],
      "stateMutability": "view",
      "type": "function"
    },
    {
      "inputs": [
        {
          "internalType": "address",
          "name": "_address",
          "type": "address"
        }
      ],
      "name": "whitelist",
      "outputs": [],
      "stateMutability": "nonpayable",
      "type": "function"
    },
    {
      "inputs": [],
      "name": "getAddresses",
      "outputs": [
        {
          "internalType": "address[]",
          "name": "",
          "type": "address[]"
        }
      ],
      "stateMutability": "view",
      "type": "function"
    }
  ],
  "bytecode": "0x608060405234801561001057600080fd5b50610664806100206000396000f3fe608060405234801561001057600080fd5b506004361061004c5760003560e01c80639b19251a14610051578063a39fac121461006d578063cfdb63ac1461008b578063edf26d9b146100bb575b600080fd5b61006b60048036038101906100669190610382565b6100eb565b005b61007561026b565b60405161008291906104bd565b60405180910390f35b6100a560048036038101906100a09190610382565b6102f9565b6040516100b291906104df565b60405180910390f35b6100d560048036038101906100d091906103af565b610319565b6040516100e291906104a2565b60405180910390f35b6000808273ffffffffffffffffffffffffffffffffffffffff1673ffffffffffffffffffffffffffffffffffffffff16815260200190815260200160002060009054906101000a900460ff1615610177576040517f08c379a000000000000000000000000000000000000000000000000000000000815260040161016e906104fa565b60405180910390fd5b60016000808373ffffffffffffffffffffffffffffffffffffffff1673ffffffffffffffffffffffffffffffffffffffff16815260200190815260200160002060006101000a81548160ff0219169083151502179055506001819080600181540180825580915050600190039060005260206000200160009091909190916101000a81548173ffffffffffffffffffffffffffffffffffffffff021916908373ffffffffffffffffffffffffffffffffffffffff1602179055507faab7954e9d246b167ef88aeddad35209ca2489d95a8aeb59e288d9b19fae5a548160405161026091906104a2565b60405180910390a150565b606060018054806020026020016040519081016040528092919081815260200182805480156102ef57602002820191906000526020600020905b8160009054906101000a900473ffffffffffffffffffffffffffffffffffffffff1673ffffffffffffffffffffffffffffffffffffffff16815260200190600101908083116102a5575b5050505050905090565b60006020528060005260406000206000915054906101000a900460ff1681565b6001818154811061032957600080fd5b906000526020600020016000915054906101000a900473ffffffffffffffffffffffffffffffffffffffff1681565b60008135905061036781610600565b92915050565b60008135905061037c81610617565b92915050565b600060208284031215610398576103976105ac565b5b60006103a684828501610358565b91505092915050565b6000602082840312156103c5576103c46105ac565b5b60006103d38482850161036d565b91505092915050565b60006103e883836103f4565b60208301905092915050565b6103fd81610564565b82525050565b61040c81610564565b82525050565b600061041d8261052a565b6104278185610542565b93506104328361051a565b8060005b8381101561046357815161044a88826103dc565b975061045583610535565b925050600181019050610436565b5085935050505092915050565b61047981610576565b82525050565b600061048c602583610553565b9150610497826105b1565b604082019050919050565b60006020820190506104b76000830184610403565b92915050565b600060208201905081810360008301526104d78184610412565b905092915050565b60006020820190506104f46000830184610470565b92915050565b600060208201905081810360008301526105138161047f565b9050919050565b6000819050602082019050919050565b600081519050919050565b6000602082019050919050565b600082825260208201905092915050565b600082825260208201905092915050565b600061056f82610582565b9050919050565b60008115159050919050565b600073ffffffffffffffffffffffffffffffffffffffff82169050919050565b6000819050919050565b600080fd5b7f54686973206164647265737320697320616c72656164792077686974656c697360008201527f7465642021000000000000000000000000000000000000000000000000000000602082015250565b61060981610564565b811461061457600080fd5b50565b610620816105a2565b811461062b57600080fd5b5056fea264697066735822122047e9dc5748ca0ec36d3815b2649a0d0513a4702215f8c0d3f6f90e88bdca054364736f6c63430008050033",
  "immutableReferences": {},
  "source": "// SPDX-License-Identifier: MIT\r\npragma solidity ^0.8.0;\r\n\r\ncontract Whitelist {\r\n    \r\n   mapping(address=> bool) public _whitelist;\r\n   address[] public addresses;\r\n   event Whitelisted(address _address);\r\n\r\n   function whitelist(address _address) public {\r\n       require(!_whitelist[_address], \"This address is already whitelisted !\");\r\n       _whitelist[_address] = true;\r\n       addresses.push(_address);\r\n       emit Whitelisted(_address);\r\n   }\r\n\r\n   function getAddresses() public view returns(address[] memory){\r\n       return addresses;\r\n   }\r\n}",
  "sourcePath": "C:/Users/kilia/OneDrive/Bureau/reactWithSolidity/DappWhite/contracts/Whitelist.sol",
  "compiler": {
    "name": "solc",
    "version": "0.8.5+commit.a4f2e591.Emscripten.clang"
  },
  "schemaVersion": "3.4.1",
  "updatedAt": "2021-06-17T20:07:31.175Z",
  "devdoc": {
    "kind": "dev",
    "methods": {},
    "version": 1
  },
  "userdoc": {
    "kind": "user",
    "methods": {},
    "version": 1
  }
}